:100000001BC03FC03EC03DC097C23BC03AC039C0D4
:1000100038C037C036C035C034C033C032C00037F6
:10002000003800360101010101010102040810201D
:10003000010300000000C60011241FBECFE5D2E07E
:10004000DEBFCDBF10E0A0E6B0E0EEE3F7E002C017
:1000500005900D92A036B107D9F710E0A0E6B0E008
:1000600001C01D92AD38B107E1F710E0C8E3D0E060
:1000700003C02297FE015DD3C633D107D1F753D316
:100080005CC3BECF882311F443EF01C04BE782E885
:1000900090E060E070E044D2089582E890E060E093
:1000A00070E037D290E08B3709F491E0892F089502
:1000B000CF93DF93EC018C81882369F4888160E021
:1000C000D9D21F827FD2688779878A879B871C86CF
:1000D0001D8681E08C83DF91CF91089590938100FC
:1000E000809380006FD26093780070937900809342
:1000F0007A0090937B0010927C0010927D00109209
:100100007E0010927F00089584E690E0D1DF83E0C6
:1001100090E0E4DF85E590E0A5E5B0E080937C0029
:1001200090937D00A0937E00B0937F00089584E6B5
:1001300090E0BEDF82E090E0D1DF81E090E0A0E0DF
:10014000B0E080937C0090937D00A0937E00B093FC
:100150007F00089584E690E0ABDF81E090E0BEDFB1
:1001600008950F931F938C0180E090E0B7DF84E641
:1001700090E09EDFF80110821F910F91089584E6B0
:1001800090E096DF80E690E0ECDF08950F931F93F8
:1001900082E090E0909365008093640001E010E0BD
:1001A000109367000093660081E08093680084E606
:1001B00090E090936A008093690004D260936C0091
:1001C00070936D0080936E0090936F00FBD16093ED
:1001D0007200709373008093740090937500109276
:1001E0006B00F0D160936C0070936D0080936E0093
:1001F00090936F00109270001092710082E060E0A6
:1002000039D210926B00DED160936C0070936D0058
:1002100080936E0090936F001092700010927100A6
:10022000109377000093760081E061E023D281E0B3
:1002300060E044D2C7D160937800709379008093D6
:100240007A0090937B001F910F910895CF93DF93D5
:10025000B9D1209178003091790040917A00509185
:100260007B00621B730B840B950BEB01CB01885554
:1002700092408D529140D8F480916800882351F0CB
:100280008091640061E0F6D18091640060E016D254
:10029000109268008FEF9FEFAFEFBFEF80937C006D
:1002A00090937D00A0937E00B0937F000BC084E606
:1002B00090E0FEDE10927C0010927D0010927E0095
:1002C00010927F00C15DD7401CF082E690E02FDFE6
:1002D000DF91CF910895EF92FF920F931F93CF93E9
:1002E000DF93EC016FD19B01AC01E0907800F090BE
:1002F000790000917A0010917B008091680088233A
:1003000009F451C080917000882309F44CC005C0E5
:1003100081E090E0A1E0B0E03DC0809171008823D1
:1003200009F44AC008C081E690E014DF4AC082E6C2
:1003300090E0FDDE46C046D12091720030917300FE
:100340004091740050917500621B730B840B950BE8
:10035000685873419CF08881882381F481E0888308
:100360009CDE182F80E0112309F481E08BDE95DEFE
:10037000811721F483E690E0C7DE23C088818823BB
:1003800029F485E190E0A0E0B0E004C081E091E0D4
:10039000A1E0B0E080937C0090937D00A0937E006C
:1003A000B0937F000EC02E193F09400B510B295806
:1003B00033410CF4ADCFDECF70DE882309F0B3CF2C
:1003C000B6CFDF91CF911F910F91FF90EF900895DD
:1003D000EF92FF920F931F9380916800882309F496
:1003E00041C08091660022D120E08C3C91050CF444
:1003F00021E080916B00281761F020936B00E2D020
:1004000060936C0070936D0080936E0090936F000A
:1004100029C0D8D0E0906C00F0906D0000916E0083
:1004200010916F006E197F09800B910B209169006C
:1004300030916A00442737FD4095542F261737071F
:10044000480759077CF481E08093700080916B002D
:1004500080937100E0927200F09273000093740038
:1004600010937500AFD020917800309179004091C1
:100470007A0050917B00621B730B840B950B34E068
:10048000759567953A95E1F7CB018F739070E0E031
:10049000F0E063707070672B11F0E1E0F0E095958B
:1004A00087958E719070E80FF91F20917C00309134
:1004B0007D0040917E0050917F0004C05695479585
:1004C00037952795EA95D2F7217080917600622FB3
:1004D000F5D080918000909181008130910569F084
:1004E000823091051CF4892B21F00BC004974CF449
:1004F0000BC080E690E0EFDE07C081E690E0A6DE6C
:1005000003C083E690E000DE1F910F91FF90EF9013
:100510000895E199FECF7FBB6EBBE09A8DB308953D
:10052000E199FECF1CBA7FBB6EBB4DBB0FB6F894F2
:10053000E29AE19A0FBE089578941F920F920FB637
:100540000F9211242F933F938F939F93AF93BF9359
:100550008091870090918800A0918900B0918A00D5
:1005600030918B00232F24582D3720F02D570196E2
:10057000A11DB11D20938B0080938700909388006C
:10058000A0938900B0938A008091830090918400A9
:10059000A0918500B09186000196A11DB11D8093A8
:1005A000830090938400A0938500B0938600BF9150
:1005B000AF919F918F913F912F910F900FBE0F9010
:1005C0001F9018958FB7F89420918700309188007C
:1005D0004091890050918A008FBFB901CA010895E6
:1005E000789480B7806880BF80B7806480BF8CB506
:1005F00080648CBD8FEF8DBD80B7807F876080BFAA
:1006000089B7846089BF83B7887F83BF8AB58C7FB1
:1006100081608ABD83B7877F83BF83B7887F83600C
:1006200083BF86B1876086B9379A0895482F863090
:1006300008F0465080918C0027B1382F3295330F47
:10064000330F307C2F72322B90E08470907096952F
:100650008795969587958295807F382B37B987B196
:10066000807F842B87B9369A3699FECF24B135B175
:10067000C9010895482F50E0CA01865D9F4FFC01D3
:1006800024914C5D5F4FFA0184918823B1F0E82FEB
:10069000F0E0E25EFF4FE491F0E0662341F49FB7A3
:1006A000F89480812095822380839FBF08959FB70F
:1006B000F8948081822B80839FBF0895282F482F34
:1006C00050E0CA01865D9F4FFC0134914C5D5F4F45
:1006D000FA019491992331F1222319F48AB58F7389
:1006E00004C0213021F48AB58F7C8ABD05C0243036
:1006F00019F48CB58F7C8CBDE92FF0E0E05EFF4FE4
:10070000E491F0E0662341F49FB7F894808130953E
:10071000832380839FBF08959FB7F8948081832BA4
:1007200080839FBF08955CDF2ADD52DEFECFEE0F8F
:0E073000FF1F0590F491E02D0994F894FFCF7F
:00000001FF
