:100000001BC03FC03EC03DC0B2C23BC03AC039C0B9
:1000100038C037C036C035C034C033C032C00037F6
:10002000003800360101010101010102040810201D
:100030000103000000006E0011241FBECFE5D2E0D6
:10004000DEBFCDBF10E0A0E6B0E0E4E7F7E002C01D
:1000500005900D92A036B107D9F710E0A0E6B0E008
:1000600001C01D92AB38B107E1F710E0C8E3D0E062
:1000700003C02297FE0178D3C633D107D1F76ED3E0
:1000800077C3BECF882311F443EF01C04BE780E86C
:1000900090E060E070E05FD2089580E890E060E07A
:1000A00070E052D290E08B3709F491E0892F0895E7
:1000B000CF93DF93EC018C81882369F4888160E021
:1000C000F4D21F829AD2688779878A879B871C8699
:1000D0001D8681E08C83DF91CF91089582E090E0CE
:1000E000909365008093640081E090E090936700B6
:1000F0008093660081E08093680084E690E09093AE
:100100006A008093690079D260936C0070936D00EF
:1001100080936E0090936F0070D260937200709322
:100120007300809374009093750010926B0065D2F9
:1001300060936C0070936D0080936E0090936F00DD
:10014000109270001092710082E060E0AED21092C6
:100150006B0053D260936C0070936D0080936E00BF
:1001600090936F00109270001092710046D26093CD
:1001700076007093770080937800909379000895CB
:1001800090937F0080937E0038D2609376007093C6
:100190007700809378009093790010927A00109203
:1001A0007B0010927C0010927D00089584E690E020
:1001B0007FDF83E090E0E4DF85E590E0A5E5B0E057
:1001C00080937A0090937B00A0937C00B0937D0095
:1001D000089584E690E06CDF82E090E0D1DF81E07A
:1001E00090E0A0E0B0E080937A0090937B00A09331
:1001F0007C00B0937D00089584E690E059DF81E0B3
:1002000090E0BEDF08950F931F938C0180E090E093
:10021000B7DF84E690E04CDFF80110821F910F9168
:10022000089581E061E041D281E060E062D284E63D
:1002300090E03EDF80E690E0E6DF0895CF93DF9325
:10024000DCD1209176003091770040917800509178
:100250007900621B730B840B950BEB01CB01885566
:1002600092408D529140D8F480916800882351F0DB
:100270008091640061E019D28091640060E039D21D
:10028000109268008FEF9FEFAFEFBFEF80937A007F
:1002900090937B00A0937C00B0937D000BC084E61C
:1002A00090E006DF10927A0010927B0010927C00A2
:1002B00010927D00C15DD7401CF082E690E089DF9E
:1002C000DF91CF910895EF92FF920F931F93CF93F9
:1002D000DF93EC0192D19B01AC01E0907600F090AD
:1002E0007700009178001091790080916800882350
:1002F00009F473C080917000882309F46EC027C090
:10030000CB0154E0959587955A95E1F79C012F73A1
:10031000307060E070E083709070892B11F061E0C4
:1003200070E0359527952E713070620F731F21E0B4
:1003300030E041E050E004C0569547953795279549
:100340006A95D2F7217081E0622FD3D156C0809197
:100350007100882309F44CC008C081E690E04CDFAE
:100360004CC082E690E035DF48C047D12091720052
:10037000309173004091740050917500621B730BB3
:10038000840B950B685873419CF08881882381F415
:1003900081E0888382DE182F80E0112309F481E058
:1003A00071DE7BDE811721F483E690E0FFDE25C05D
:1003B0008881882329F485E190E0A0E0B0E004C0C2
:1003C00081E091E0A1E0B0E080937A0090937B001F
:1003D000A0937C00B0937D0010C02E193F09400B04
:1003E000510BB90183E1293838070CF489CFDCCFF0
:1003F00054DE882309F0B1CFB4CFDF91CF911F91A4
:100400000F91FF90EF900895EF92FF920F931F933B
:1004100080916800882309F441C08091660021D151
:1004200020E08C3C91050CF421E080916B002817B2
:1004300061F020936B00E1D060936C0070936D00CD
:1004400080936E0090936F0029C0D7D0E0906C002D
:10045000F0906D0000916E0010916F006E197F0991
:10046000800B910B2091690030916A00442737FD81
:100470004095542F26173707480759077CF481E029
:100480008093700080916B0080937100E092720005
:10049000F09273000093740010937500AED0209119
:1004A0007600309177004091780050917900621B7E
:1004B000730B840B950BE4E075956795EA95E1F76E
:1004C000CB018F739070E0E0F0E063707070672B89
:1004D00011F0E1E0F0E0959587958E719070E80F4E
:1004E000F91F20917A0030917B0040917C0050915F
:1004F0007D0004C05695479537952795EA95D2F724
:10050000217081E0622FF5D080917E0090917F0074
:100510008130910569F0823091051CF4892B21F01E
:100520000BC004974CF40BC080E690E0CCDE07C013
:1005300081E690E083DE03C083E690E037DE1F9122
:100540000F91FF90EF900895E199FECF7FBB6EBBB6
:10055000E09A8DB30895E199FECF1CBA7FBB6EBBC4
:100560004DBB0FB6F894E29AE19A0FBE08957894C5
:100570001F920F920FB60F9211242F933F938F93D8
:100580009F93AF93BF938091850090918600A09137
:100590008700B091880030918900232F24582D378F
:1005A00020F02D570196A11DB11D20938900809345
:1005B000850090938600A0938700B0938800809177
:1005C000810090918200A0918300B09184000196F7
:1005D000A11DB11D8093810090938200A0938300A0
:1005E000B0938400BF91AF919F918F913F912F91D4
:1005F0000F900FBE0F901F9018958FB7F894209111
:1006000085003091860040918700509188008FBF0F
:10061000B901CA010895789480B7806880BF80B717
:10062000806480BF8CB580648CBD8FEF8DBD80B73A
:10063000807F876080BF89B7846089BF83B7887FE8
:1006400083BF8AB58C7F81608ABD83B7877F83BF74
:1006500083B7887F836083BF86B1876086B9379A06
:100660000895482F863008F0465080918A0027B1BF
:10067000382F3295330F330F307C2F72322B90E0AE
:100680008470907096958795969587958295807FD2
:10069000382B37B987B1807F842B87B9369A369942
:1006A000FECF24B135B1C9010895482F50E0CA01E9
:1006B000865D9F4FFC0124914C5D5F4FFA01849150
:1006C0008823B1F0E82FF0E0E25EFF4FE491F0E024
:1006D000662341F49FB7F89480812095822380831C
:1006E0009FBF08959FB7F8948081822B80839FBF1E
:1006F0000895282F482F50E0CA01865D9F4FFC01C6
:1007000034914C5D5F4FFA019491992331F122238A
:1007100019F48AB58F7304C0213021F48AB58F7C17
:100720008ABD05C0243019F48CB58F7C8CBDE92FAF
:10073000F0E0E05EFF4FE491F0E0662341F49FB704
:10074000F89480813095832380839FBF08959FB75D
:10075000F8948081832B80839FBF08955CDF61DDE7
:1007600053DEFECFEE0FFF1F0590F491E02D0994AC
:04077000F894FFCF2B
:00000001FF
